{
  "contractName": "MatchBid",
  "abi": [
    {
      "inputs": [
        {
          "internalType": "string",
          "name": "_match_id",
          "type": "string"
        },
        {
          "internalType": "uint256",
          "name": "_matchSartTime",
          "type": "uint256"
        }
      ],
      "stateMutability": "nonpayable",
      "type": "constructor"
    },
    {
      "inputs": [
        {
          "internalType": "uint256",
          "name": "",
          "type": "uint256"
        }
      ],
      "name": "addressIndices",
      "outputs": [
        {
          "internalType": "address",
          "name": "",
          "type": "address"
        }
      ],
      "stateMutability": "view",
      "type": "function"
    },
    {
      "inputs": [
        {
          "internalType": "address",
          "name": "",
          "type": "address"
        }
      ],
      "name": "bidders",
      "outputs": [
        {
          "components": [
            {
              "internalType": "bool",
              "name": "home_wins",
              "type": "bool"
            },
            {
              "internalType": "bool",
              "name": "away_wins",
              "type": "bool"
            }
          ],
          "internalType": "struct MatchBid.MatchResult",
          "name": "matchResult",
          "type": "tuple"
        },
        {
          "internalType": "uint256",
          "name": "amount",
          "type": "uint256"
        }
      ],
      "stateMutability": "view",
      "type": "function"
    },
    {
      "inputs": [],
      "name": "matchSartTime",
      "outputs": [
        {
          "internalType": "uint256",
          "name": "",
          "type": "uint256"
        }
      ],
      "stateMutability": "view",
      "type": "function"
    },
    {
      "inputs": [
        {
          "components": [
            {
              "internalType": "bool",
              "name": "home_wins",
              "type": "bool"
            },
            {
              "internalType": "bool",
              "name": "away_wins",
              "type": "bool"
            }
          ],
          "internalType": "struct MatchBid.MatchResult",
          "name": "matchResult",
          "type": "tuple"
        }
      ],
      "name": "bid",
      "outputs": [],
      "stateMutability": "payable",
      "type": "function"
    },
    {
      "inputs": [
        {
          "internalType": "address[]",
          "name": "addresses",
          "type": "address[]"
        },
        {
          "internalType": "uint256[]",
          "name": "amounts",
          "type": "uint256[]"
        }
      ],
      "name": "endBid",
      "outputs": [],
      "stateMutability": "payable",
      "type": "function"
    }
  ],
  "bytecode": "0x6080604052611c206002553480156200001757600080fd5b5060405162000f7438038062000f7483398181016040528101906200003d91906200032e565b816000908051906020019062000055929190620000a6565b508060018190555033600360006101000a81548173ffffffffffffffffffffffffffffffffffffffff021916908373ffffffffffffffffffffffffffffffffffffffff1602179055505050620003f9565b828054620000b490620003c3565b90600052602060002090601f016020900481019282620000d8576000855562000124565b82601f10620000f357805160ff191683800117855562000124565b8280016001018555821562000124579182015b828111156200012357825182559160200191906001019062000106565b5b50905062000133919062000137565b5090565b5b808211156200015257600081600090555060010162000138565b5090565b6000604051905090565b600080fd5b600080fd5b600080fd5b600080fd5b6000601f19601f8301169050919050565b7f4e487b7100000000000000000000000000000000000000000000000000000000600052604160045260246000fd5b620001bf8262000174565b810181811067ffffffffffffffff82111715620001e157620001e062000185565b5b80604052505050565b6000620001f662000156565b9050620002048282620001b4565b919050565b600067ffffffffffffffff82111562000227576200022662000185565b5b620002328262000174565b9050602081019050919050565b60005b838110156200025f57808201518184015260208101905062000242565b838111156200026f576000848401525b50505050565b60006200028c620002868462000209565b620001ea565b905082815260208101848484011115620002ab57620002aa6200016f565b5b620002b88482856200023f565b509392505050565b600082601f830112620002d857620002d76200016a565b5b8151620002ea84826020860162000275565b91505092915050565b6000819050919050565b6200030881620002f3565b81146200031457600080fd5b50565b6000815190506200032881620002fd565b92915050565b6000806040838503121562000348576200034762000160565b5b600083015167ffffffffffffffff81111562000369576200036862000165565b5b6200037785828601620002c0565b92505060206200038a8582860162000317565b9150509250929050565b7f4e487b7100000000000000000000000000000000000000000000000000000000600052602260045260246000fd5b60006002820490506001821680620003dc57607f821691505b60208210811415620003f357620003f262000394565b5b50919050565b610b6b80620004096000396000f3fe60806040526004361061004a5760003560e01c806315e0efb21461004f5780636a03ab641461006b57806371d5e1d514610096578063a7df8c57146100b2578063fcc8f793146100ef575b600080fd5b61006960048036038101906100649190610770565b61012d565b005b34801561007757600080fd5b5061008061023f565b60405161008d91906107f7565b60405180910390f35b6100b060048036038101906100ab919061089f565b610245565b005b3480156100be57600080fd5b506100d960048036038101906100d491906108cc565b610409565b6040516100e69190610908565b60405180910390f35b3480156100fb57600080fd5b5061011660048036038101906101119190610923565b610448565b60405161012492919061098e565b60405180910390f35b600360009054906101000a900473ffffffffffffffffffffffffffffffffffffffff1673ffffffffffffffffffffffffffffffffffffffff163373ffffffffffffffffffffffffffffffffffffffff161461018757600080fd5b6000670de0b6b3a7640000905060005b8351811015610239578381815181106101b3576101b26109b7565b5b602002602001015173ffffffffffffffffffffffffffffffffffffffff166108fc8483815181106101e7576101e66109b7565b5b6020026020010151846101fa9190610a15565b9081150290604051600060405180830381858888f19350505050158015610225573d6000803e3d6000fd5b50808061023190610a6f565b915050610197565b50505050565b60015481565b60003411610288576040517f08c379a000000000000000000000000000000000000000000000000000000000815260040161027f90610b15565b60405180910390fd5b600360009054906101000a900473ffffffffffffffffffffffffffffffffffffffff1673ffffffffffffffffffffffffffffffffffffffff166108fc349081150290604051600060405180830381858888f193505050501580156102f0573d6000803e3d6000fd5b506000604051806040016040528083815260200134815250905080600460003373ffffffffffffffffffffffffffffffffffffffff1673ffffffffffffffffffffffffffffffffffffffff16815260200190815260200160002060008201518160000160008201518160000160006101000a81548160ff02191690831515021790555060208201518160000160016101000a81548160ff0219169083151502179055505050602082015181600101559050506005339080600181540180825580915050600190039060005260206000200160009091909190916101000a81548173ffffffffffffffffffffffffffffffffffffffff021916908373ffffffffffffffffffffffffffffffffffffffff1602179055505050565b6005818154811061041957600080fd5b906000526020600020016000915054906101000a900473ffffffffffffffffffffffffffffffffffffffff1681565b6004602052806000526040600020600091509050806000016040518060400160405290816000820160009054906101000a900460ff161515151581526020016000820160019054906101000a900460ff161515151581525050908060010154905082565b6000604051905090565b600080fd5b600080fd5b600080fd5b6000601f19601f8301169050919050565b7f4e487b7100000000000000000000000000000000000000000000000000000000600052604160045260246000fd5b61050e826104c5565b810181811067ffffffffffffffff8211171561052d5761052c6104d6565b5b80604052505050565b60006105406104ac565b905061054c8282610505565b919050565b600067ffffffffffffffff82111561056c5761056b6104d6565b5b602082029050602081019050919050565b600080fd5b600073ffffffffffffffffffffffffffffffffffffffff82169050919050565b60006105ad82610582565b9050919050565b6105bd816105a2565b81146105c857600080fd5b50565b6000813590506105da816105b4565b92915050565b60006105f36105ee84610551565b610536565b905080838252602082019050602084028301858111156106165761061561057d565b5b835b8181101561063f578061062b88826105cb565b845260208401935050602081019050610618565b5050509392505050565b600082601f83011261065e5761065d6104c0565b5b813561066e8482602086016105e0565b91505092915050565b600067ffffffffffffffff821115610692576106916104d6565b5b602082029050602081019050919050565b6000819050919050565b6106b6816106a3565b81146106c157600080fd5b50565b6000813590506106d3816106ad565b92915050565b60006106ec6106e784610677565b610536565b9050808382526020820190506020840283018581111561070f5761070e61057d565b5b835b81811015610738578061072488826106c4565b845260208401935050602081019050610711565b5050509392505050565b600082601f830112610757576107566104c0565b5b81356107678482602086016106d9565b91505092915050565b60008060408385031215610787576107866104b6565b5b600083013567ffffffffffffffff8111156107a5576107a46104bb565b5b6107b185828601610649565b925050602083013567ffffffffffffffff8111156107d2576107d16104bb565b5b6107de85828601610742565b9150509250929050565b6107f1816106a3565b82525050565b600060208201905061080c60008301846107e8565b92915050565b600080fd5b60008115159050919050565b61082c81610817565b811461083757600080fd5b50565b60008135905061084981610823565b92915050565b60006040828403121561086557610864610812565b5b61086f6040610536565b9050600061087f8482850161083a565b60008301525060206108938482850161083a565b60208301525092915050565b6000604082840312156108b5576108b46104b6565b5b60006108c38482850161084f565b91505092915050565b6000602082840312156108e2576108e16104b6565b5b60006108f0848285016106c4565b91505092915050565b610902816105a2565b82525050565b600060208201905061091d60008301846108f9565b92915050565b600060208284031215610939576109386104b6565b5b6000610947848285016105cb565b91505092915050565b61095981610817565b82525050565b6040820160008201516109756000850182610950565b5060208201516109886020850182610950565b50505050565b60006060820190506109a3600083018561095f565b6109b060408301846107e8565b9392505050565b7f4e487b7100000000000000000000000000000000000000000000000000000000600052603260045260246000fd5b7f4e487b7100000000000000000000000000000000000000000000000000000000600052601160045260246000fd5b6000610a20826106a3565b9150610a2b836106a3565b9250817fffffffffffffffffffffffffffffffffffffffffffffffffffffffffffffffff0483118215151615610a6457610a636109e6565b5b828202905092915050565b6000610a7a826106a3565b91507fffffffffffffffffffffffffffffffffffffffffffffffffffffffffffffffff821415610aad57610aac6109e6565b5b600182019050919050565b600082825260208201905092915050565b7f43616e2774206269642077697468203020455448202120000000000000000000600082015250565b6000610aff601783610ab8565b9150610b0a82610ac9565b602082019050919050565b60006020820190508181036000830152610b2e81610af2565b905091905056fea26469706673582212201f4f806a228b10ae492b5a3835d3a5f4516814bca95f6fc1c51e439d1b824eac64736f6c634300080a0033",
  "immutableReferences": {},
  "source": "\r\npragma solidity ^0.8.10;\r\n\r\ncontract MatchBid {\r\n    string match_id;\r\n    uint256 public matchSartTime;\r\n    uint maxMatchTime =  2 * 60 * 60;\r\n    struct MatchResult {\r\n        bool home_wins;\r\n        bool away_wins;\r\n    }\r\n\r\n\r\n    struct BidDetails{\r\n        MatchResult matchResult;\r\n        uint256 amount;\r\n    }\r\n    \r\n    address payable private owner;\r\n    mapping(address => BidDetails) public bidders;\r\n    address[] public addressIndices;\r\n\r\n\r\n\r\n    constructor(string memory _match_id , uint256 _matchSartTime){\r\n        match_id = _match_id;\r\n        matchSartTime = _matchSartTime;\r\n        owner = payable(msg.sender);\r\n    }\r\n\r\n    modifier onlyOwner() {\r\n        require(msg.sender == owner);\r\n        _;\r\n    }\r\n\r\n    modifier matchNotStarted() {\r\n        require(block.timestamp - matchSartTime >= maxMatchTime );\r\n        _;\r\n    }\r\n\r\n    function bid(MatchResult memory matchResult)  public payable {\r\n        require(msg.value>0,\"Can't bid with 0 ETH ! \");\r\n        owner.transfer(msg.value);\r\n        BidDetails memory bidDetails = BidDetails(matchResult , msg.value); \r\n        bidders[msg.sender] = bidDetails;\r\n        addressIndices.push(msg.sender);\r\n\r\n    }\r\n\r\n    function endBid(address[] memory addresses, uint[] memory amounts ) public onlyOwner payable {\r\n        uint unit = 1 ether ;\r\n\r\n        for(uint i =0;i<addresses.length;i++) {\r\n            payable(addresses[i]).transfer( unit * (amounts[i]) );\r\n        }\r\n\r\n    }\r\n}",
  "sourcePath": "C:\\Users\\dell\\Desktop\\WildBets\\wildbet-contract\\contracts\\MatchBid.sol",
  "compiler": {
    "name": "solc",
    "version": "0.8.10+commit.fc410830.Emscripten.clang"
  },
  "schemaVersion": "3.4.4",
  "updatedAt": "2022-02-10T01:22:26.421Z",
  "devdoc": {
    "kind": "dev",
    "methods": {},
    "version": 1
  },
  "userdoc": {
    "kind": "user",
    "methods": {},
    "version": 1
  }
}